:020000040800F2
:1000000000800120E10A0008310B0008310B0008D4
:10001000310B0008310B0008310B00080000000014
:10002000000000000000000000000000310B00088C
:10003000310B000800000000310B0008310B0008F4
:1000400000000000310B0008310B0008310B0008E4
:10005000310B0008310B0008A1050008D505000888
:10006000450600088D060008310B0008310B00081A
:10007000310B0008310B0008310B0008310B000870
:10008000310B0008310B0008310B000800000000A4
:10009000000000000000000000000000310B00081C
:1000A000310B0008310B0008310B0008310B000840
:1000B00065050008310B0008310B0008310B000802
:1000C000310B0008310B0008310B0008310B000820
:1000D000310B0008310B0008310B00080000000054
:1000E000310B0008310B0008310B00080000000044
:1000F000000000000000000000000000310B0008BC
:1001000000000000310B0008310B0008310B000823
:1001100000000000000000000000000000000000DF
:10012000310B0008310B0008310B0008310B0008BF
:10013000310B00080000000000000000000000007B
:10014000000000000000000000000000310B00086B
:10015000310B0008310B0008310B0008310B00088F
:10016000310B0008310B0008000000000000000007
:10017000000000000000000000000000000000007F
:10018000000000000000000000000000000000006F
:04019000310B000827
:1001940010B5054C237833B9044B13B10448AFF3BD
:1001A40000800123237010BD0C000020000000001B
:1001B4007C0B000808B5034B1BB103490348AFF39C
:1001C400008008BD00000000100000207C0B000827
:1001D40080B483B000AF0346FB7197F90730002B5E
:1001E4000BDBFB7903F01F02074997F907305B0922
:1001F400012000FA02F241F8232000BF0C37BD466B
:100204005DF8047B704700BF00E100E080B483B078
:1002140000AF03463960FB7197F90730002B0ADB06
:100224003B68DAB20C4997F907301201D2B20B4499
:1002340083F800230AE03B68DAB20849FB7903F04B
:100244000F03043B1201D2B20B441A7600BF0C37E1
:10025400BD465DF8047B704700E100E000ED00E07E
:1002640080B400AF1D4B1B6B1C4A43F007031363A0
:100274001B4B1A681A491B4B13430B60184B1A6823
:100284001749194B13400B60184B1A681749154B43
:1002940013430B60154B1A681449134B13400B603E
:1002A400134B1B68124A43F0A8431360104B1B689E
:1002B4000F4A23F0284313600D4B1B680C4A43F488
:1002C400A81313600A4B1B68094A23F4281313600C
:1002D40000BFBD465DF8047B704700BF0038024094
:1002E40000080240555501005555FDFF000002402D
:1002F4000004024080B500AF72B600BF164B1B6C01
:10030400154A43F0010313644FF0804343F67F62C0
:100314009A624FF080436322DA624FF080430022F6
:100324005A624FF08043DB684FF0804243F0010390
:10033400D3604FF080431B684FF0804243F00103C9
:10034400136005211C20FFF761FF1C20FFF740FF0D
:1003540062B600BF00BF80BD0038024080B500AF68
:1003640072B600BF1A4B5B6C194A43F48043536462
:10037400184B1B68174A23F003031360154BDB6803
:10038400144A43F00103D360124BDB68114A23F093
:100394000203D360104B9B680F4A43F00103936040
:1003A4000E4B1B680D4A43F0010313600B4BDB68D3
:1003B4000A4A43F00103D36001210620FFF726FF18
:1003C4000620FFF705FF62B600BF00BF80BD00BF77
:1003D400003802400004024000380140003C014063
:1003E40080B500AF72B600BF1A4B1B68194A23F0E0
:1003F40004031360174B1B68164A23F008031360A9
:10040400144BDB68134A43F00403D360114BDB68DD
:10041400104A23F00803D3600F4B9B680E4A43F045
:10042400100393600D4B1B680C4A43F002031360E6
:100434000A4BDB68094A43F00203D3600121072019
:10044400FFF7E4FE0720FFF7C3FE62B600BF00BF5C
:1004540080BD00BF0004024000380140003C014060
:1004640080B500AF72B600BF1A4B1B68194A23F05F
:1004740010031360174B1B68164A23F02003136004
:10048400144BDB68134A43F01003D360114BDB6851
:10049400104A23F02003D3600F4B9B680E4A43F4A9
:1004A400807393600D4B1B680C4A43F00203136086
:1004B4000A4BDB68094A43F00203D3600121082098
:1004C400FFF7A4FE0820FFF783FE62B600BF00BF5B
:1004D40080BD00BF0004024000380140003C0140E0
:1004E40080B500AF72B600BF1A4B1B68194A23F0DF
:1004F40040031360174B1B68164A23F080031360F4
:10050400144BDB68134A43F04003D360114BDB68A0
:10051400104A23F08003D3600F4B9B680E4A43F4C8
:10052400805393600D4B1B680C4A43F00203136025
:100534000A4BDB68094A43F00203D3600121092016
:10054400FFF764FE0920FFF743FE62B600BF00BF59
:1005540080BD00BF0004024000380140003C01405F
:1005640080B400AF4FF080431B6903F00103002BFC
:1005740004D0094B1B68013B074A13604FF08043CA
:100584001B694FF0804223F00103136100BFBD4695
:100594005DF8047B704700BF0800002080B400AF02
:1005A400094B5B6903F00103002B02D0074B0322C4
:1005B4001A60054B5B69044A43F00103536100BFB1
:1005C400BD465DF8047B7047003C014008000020F4
:1005D40080B400AF154B5B6903F00203002B1AD003
:1005E400134B1B68002B06D1124B03221A60124BCB
:1005F4001B68124A13600E4B1B6801330C4A1360CC
:100604000B4B1B68012B06DD0C4B1B680A4A13605D
:10061400074B00221A60054B5B69044A43F002034E
:10062400536100BFBD465DF8047B7047003C014048
:100634002C000020080000200000002028000020DA
:1006440080B400AF0D4B5B6903F00203002B09D0AB
:100654000B4B1B6805330A4A13600A4B1B680533AE
:10066400084A1360054B5B69044A43F00203536173
:1006740000BFBD465DF8047B704700BF003C0140ED
:10068400080000200400002080B400AF0F4B5B6919
:1006940003F00203002B0DD00D4B1B680A2B09DD60
:1006A4000C4B1B68053B0B4A1360094B1B68053B4D
:1006B400074A1360054B5B69044A43F00203536124
:1006C40000BFBD465DF8047B704700BF003C01409D
:1006D400040000200800002080B483B000AF03466B
:1006E400FB71FB79032B57D801A252F823F000BF0A
:1006F400050700082B0700085107000877070008C2
:10070400284B5B69274A23F480735361254B5B694B
:10071400244A23F400735361224B5B69214A23F476
:100724008063536138E01F4B5B691E4A43F4807356
:1007340053611C4B5B691B4A23F400735361194BCF
:100744005B69184A23F48063536125E0154B5B69A8
:10075400144A23F480735361124B5B69114A43F4C6
:10076400007353610F4B5B690E4A23F4806353613A
:1007740012E00C4B5B690B4A23F480735361094B01
:100784005B69084A23F400735361064B5B69054AAD
:1007940043F48063536100BF00BF0C37BD465DF86E
:1007A400047B70470004024080B483B000AF03466A
:1007B400FB71FB79032B57D801A252F823F000BF39
:1007C400D5070008FB0700082108000847080008AF
:1007D400284B5B69274A23F400535361254B5B691B
:1007E400244A23F480435361224B5B69214A23F456
:1007F4000043536138E01F4B5B691E4A43F40053C6
:1008040053611C4B5B691B4A23F480435361194BAE
:100814005B69184A23F40043536125E0154B5B6977
:10082400144A23F400535361124B5B69114A43F495
:10083400804353610F4B5B690E4A23F400435361B9
:1008440012E00C4B5B690B4A23F400535361094BD0
:100854005B69084A23F480435361064B5B69054A8C
:1008640043F40043536100BF00BF0C37BD465DF83D
:10087400047B704700040240B0B596B000AFFFF7A8
:10088400EFFCFFF737FDFFF769FDFFF7A9FDFFF761
:10089400E7FDFFF725FE894B07F114041D460FCD34
:1008A4000FC40FCD0FC495E8030084E8030043F69A
:1008B400C433FB640120FFF70FFF814B1B68012B3E
:1008C40037D1804B1B68032B0ADD0320FFF76CFF35
:1008D4007C4B1B68033B7B657A4B1B683B6572E072
:1008E400784B1B68032B0DDC764B1B68002B09DD52
:1008F4000220FFF759FF734B1B687B65714B1B6824
:100904003B6560E06F4B1B68002B5CD10120FFF757
:100914004BFF6D4B1B686B4A13606C4B1B68002BC1
:1009240003D0674B02221A604DE0654B00221A6027
:1009340049E0634B1B68002B37D1624B1B68032BC8
:100944000ADD0320FFF7C8FE5E4B1B68033B3B65D3
:100954005C4B1B687B6536E05A4B1B68032B0DDC34
:10096400584B1B68002B09DD0220FFF7B5FE554BE1
:100974001B683B65534B1B687B6524E0514B1B682C
:10098400002B20D10120FFF7A7FE4F4B1B684D4AD7
:1009940013604E4B1B68002B03D0494B02221A6094
:1009A40011E0474B01221A600DE0454B1B68022BF6
:1009B40009D137237B6537233B650120FFF7F4FE1C
:1009C4000120FFF789FE7B6D414A82FB03129210DE
:1009D400DB17D31ABB647A6D3D4B83FB021399106A
:1009E400D317C91A0B469B000B445B00D31A7B64D4
:1009F4003B6D374A82FB03129210DB17D31A3B6418
:100A04003A6D334B83FB02139910D317C91A0B4663
:100A14009B000B445B00D31AFB633B6C9B00583375
:100A24003B4453F8443C03F580722A4B5A61BB6C37
:100A34009B0058333B4453F8443C03F58072264BE7
:100A44005A6100233B6102E03B6901333B613B692E
:100A5400FA6C9A42F8DC0023FB6002E0FB68013385
:100A6400FB60FB68FA6C9A42F8DCFB6B9B00583322
:100A74003B4453F8443C03F18002164B5A617B6CAF
:100A84009B0058333B4453F8443C03F18002124B1F
:100A94005A610023BB6002E0BB680133BB60BB68E2
:100AA400FA6C9A42F8DC00237B6002E07B68013335
:100AB4007B607B68FA6C9A42F8DCFEE6940B0008D3
:100AC4000000002008000020040000202C0000206A
:100AD4006766666600000240000802400D488546CD
:100AE400AFF300800C480D490D4A002302E0D458AE
:100AF400C4500433C4188C42F9D30A4A0A4C002364
:100B040001E013600432A242FBD300F011F8FFF7B6
:100B1400B3FEFEE700800120000000200C0000204E
:100B2400C40B00080C00002030000020FEE7000089
:100B340070B50D4D0D4C641BA4100026A64209D1BE
:100B44000B4D0C4C00F018F8641BA4100026A642B0
:100B540005D170BD55F8043B98470136EEE755F8CA
:100B6400043B98470136F2E7BC0B0008BC0B0008B5
:100B7400BC0B0008C00B0008F8B500BFF8BC08BCEB
:100B84009E467047F8B500BFF8BC08BC9E46704747
:100B94003F000000060000005B0000004F00000062
:100BA400660000006D0000007D00000007000000EA
:080BB4007F0000006F0000004B
:040BBC00B901000873
:040BC0009501000893
:0C0BC400010000000F0000000F00000006
:0400000508000AE104
:00000001FF
